{"address":"0x450503cf84A3F3713d6f580a72AE6038cA0E8918","bytecode":"0x60806040523480156200001157600080fd5b506040516200212a3803806200212a833981016040819052620000349162000432565b604080518082018252600981526826b7b1b5aa37b5b2b760b91b60208083019182528351808501909452600884526726a7a1a5991a999b60c11b90840152815191929162000085916003916200036d565b5080516200009b9060049060208401906200036d565b50506005805461ff001960ff1990911660121716905550600780546001600160a01b0319908116731f98431c8ad98523631ae4a59f267346ea31f9841790915560088054821673c36442b4a4522e871399cd717abdd847ab11fe88179055600a805490911673c778417e063141139fce010982780140aa0cd5ab179055620001243083620001f7565b620001303382620001f7565b600a546040516370a0823160e01b81527f0785ca29116b116c7f5454bb9d506795aced63fec6a4388d790aa15998cb9f9d916001600160a01b0316906370a08231906200018290339060040162000456565b602060405180830381600087803b1580156200019d57600080fd5b505af1158015620001b2573d6000803e3d6000fd5b505050506040513d601f19601f82011682018060405250810190620001d8919062000419565b604051620001e791906200046a565b60405180910390a1505062000473565b6001600160a01b03821662000253576040805162461bcd60e51b815260206004820152601f60248201527f45524332303a206d696e7420746f20746865207a65726f206164647265737300604482015290519081900360640190fd5b620002616000838362000306565b6200027d816002546200030b60201b620012101790919060201c565b6002556001600160a01b03821660009081526020818152604090912054620002b0918390620012106200030b821b17901c565b6001600160a01b0383166000818152602081815260408083209490945583518581529351929391927fddf252ad1be2c89b69c2b068fc378daa952ba7f163c4a11628f55a4df523b3ef9281900390910190a35050565b505050565b60008282018381101562000366576040805162461bcd60e51b815260206004820152601b60248201527f536166654d6174683a206164646974696f6e206f766572666c6f770000000000604482015290519081900360640190fd5b9392505050565b828054600181600116156101000203166002900490600052602060002090601f016020900481019282620003a55760008555620003f0565b82601f10620003c057805160ff1916838001178555620003f0565b82800160010185558215620003f0579182015b82811115620003f0578251825591602001919060010190620003d3565b50620003fe92915062000402565b5090565b5b80821115620003fe576000815560010162000403565b6000602082840312156200042b578081fd5b5051919050565b6000806040838503121562000445578081fd5b505080516020909101519092909150565b6001600160a01b0391909116815260200190565b90815260200190565b611ca780620004836000396000f3fe60806040526004361061014b5760003560e01c80636e055885116100b6578063a457c2d71161006f578063a457c2d714610359578063a9059cbb14610379578063bad9747614610399578063bce84fdd146103ae578063c615e731146103d1578063dd62ed3e146103f35761014b565b80636e055885146102cf57806370a08231146102f257806370a24918146103125780637c887c591461032757806395d89b411461033c578063a082a559146103515761014b565b806318160ddd1161010857806318160ddd1461021657806323b872dd1461022b578063255c69341461024b578063313ce5671461026d578063395093511461028f5780635149f717146102af5761014b565b80630100b7131461015057806306fdde031461017b578063095ea7b31461019d578063098d3228146101ca5780630c165e6a146101ec57806317d70f7c14610201575b600080fd5b34801561015c57600080fd5b50610165610413565b60405161017291906118c9565b60405180910390f35b34801561018757600080fd5b50610190610422565b60405161017291906118dd565b3480156101a957600080fd5b506101bd6101b8366004611698565b6104b8565b60405161017291906118be565b3480156101d657600080fd5b506101df6104d5565b6040516101729190611afe565b3480156101f857600080fd5b506101656104db565b34801561020d57600080fd5b506101df6104ea565b34801561022257600080fd5b506101df6104f0565b34801561023757600080fd5b506101bd610246366004611658565b6104f6565b34801561025757600080fd5b5061026b6102663660046117cb565b61057d565b005b34801561027957600080fd5b50610282610b31565b6040516101729190611b39565b34801561029b57600080fd5b506101bd6102aa366004611698565b610b3a565b3480156102bb57600080fd5b5061026b6102ca36600461172f565b610b88565b3480156102db57600080fd5b506102e4610dd1565b604051610172929190611b2b565b3480156102fe57600080fd5b506101df61030d3660046115e8565b610f23565b34801561031e57600080fd5b50610165610f42565b34801561033357600080fd5b50610165610f51565b34801561034857600080fd5b50610190610f60565b61026b610fc1565b34801561036557600080fd5b506101bd610374366004611698565b610fee565b34801561038557600080fd5b506101bd610394366004611698565b611056565b3480156103a557600080fd5b506101bd61106a565b3480156103ba57600080fd5b506103c3611078565b604051610172929190611ae4565b3480156103dd57600080fd5b506103e661112c565b6040516101729190611ad0565b3480156103ff57600080fd5b506101df61040e366004611620565b6111e5565b6008546001600160a01b031681565b60038054604080516020601f60026000196101006001881615020190951694909404938401819004810282018101909252828152606093909290918301828280156104ae5780601f10610483576101008083540402835291602001916104ae565b820191906000526020600020905b81548152906001019060200180831161049157829003601f168201915b5050505050905090565b60006104cc6104c5611271565b8484611275565b50600192915050565b60001981565b600a546001600160a01b031681565b60065481565b60025490565b6000610503848484611361565b6105738461050f611271565b61056e85604051806060016040528060288152602001611bdc602891396001600160a01b038a1660009081526001602052604081209061054d611271565b6001600160a01b0316815260208101919091526040016000205491906114bc565b611275565b5060019392505050565b6009546040805163d21220a760e01b8152905130926001600160a01b03169163d21220a7916004808301926020929190829003018186803b1580156105c157600080fd5b505afa1580156105d5573d6000803e3d6000fd5b505050506040513d601f19601f820116820180604052508101906105f99190611604565b6001600160a01b03161461060e579394939192915b600a54604051636eb1769f60e11b81526000916001600160a01b03169063dd62ed3e90610641903390309060040161183f565b602060405180830381600087803b15801561065b57600080fd5b505af115801561066f573d6000803e3d6000fd5b505050506040513d601f19601f820116820180604052508101906106939190611778565b9050868110156106be5760405162461bcd60e51b81526004016106b590611960565b60405180910390fd5b600a546040516323b872dd60e01b81526001600160a01b03909116906323b872dd906106f290339030908c90600401611881565b602060405180830381600087803b15801561070c57600080fd5b505af1158015610720573d6000803e3d6000fd5b505050506040513d601f19601f8201168201806040525081019061074491906116c3565b5061074e30610f23565b86111561076d5760405162461bcd60e51b81526004016106b5906119d2565b600a5460405163095ea7b360e01b8152600091829182916001600160a01b03169063095ea7b3906107ba9073c36442b4a4522e871399cd717abdd847ab11fe8890600019906004016118a5565b602060405180830381600087803b1580156107d457600080fd5b505af11580156107e8573d6000803e3d6000fd5b505050506040513d601f19601f8201168201806040525081019061080c91906116c3565b5061082e3073c36442b4a4522e871399cd717abdd847ab11fe88600019611275565b878a1015801561083e5750868910155b61085a5760405162461bcd60e51b81526004016106b590611930565b600854604080516101608101808352600954630dfe168160e01b90915291516001600160a01b03938416936388316456938392911690630dfe16819061016480850191602091818703018186803b1580156108b457600080fd5b505afa1580156108c8573d6000803e3d6000fd5b505050506040513d601f19601f820116820180604052508101906108ec9190611604565b6001600160a01b03168152602001600960009054906101000a90046001600160a01b03166001600160a01b031663d21220a76040518163ffffffff1660e01b815260040160206040518083038186803b15801561094857600080fd5b505afa15801561095c573d6000803e3d6000fd5b505050506040513d601f19601f820116820180604052508101906109809190611604565b6001600160a01b03168152602001600960009054906101000a90046001600160a01b03166001600160a01b031663ddca3f436040518163ffffffff1660e01b815260040160206040518083038186803b1580156109dc57600080fd5b505afa1580156109f0573d6000803e3d6000fd5b505050506040513d601f19601f82011682018060405250810190610a14919061175c565b62ffffff1681526020018960020b81526020018860020b81526020018d81526020018c81526020018b81526020018a8152602001306001600160a01b03168152602001610a6b60f04261121090919063ffffffff16565b8152506040518263ffffffff1660e01b8152600401610a8a9190611a22565b608060405180830381600087803b158015610aa457600080fd5b505af1158015610ab8573d6000803e3d6000fd5b505050506040513d601f19601f82011682018060405250810190610adc9190611790565b600684905560405192965090945092507f4565e6548f970b8ec99b192062a69bb1337478546f4818725d63c877a8234f2e91610b1d91869086908690611b07565b60405180910390a150505050505050505050565b60055460ff1690565b60006104cc610b47611271565b8461056e8560016000610b58611271565b6001600160a01b03908116825260208083019390935260409182016000908120918c168152925290205490611210565b600554610100900460ff1615610bb05760405162461bcd60e51b81526004016106b5906119af565b60075460405163a167129560e01b81526000916001600160a01b03169063a167129590610bf99073c778417e063141139fce010982780140aa0cd5ab9030908790600401611859565b602060405180830381600087803b158015610c1357600080fd5b505af1158015610c27573d6000803e3d6000fd5b505050506040513d601f19601f82011682018060405250810190610c4b9190611604565b600980546001600160a01b0319166001600160a01b0383811691909117918290556040805163d21220a760e01b815290519394503093929091169163d21220a791600480820192602092909190829003018186803b158015610cac57600080fd5b505afa158015610cc0573d6000803e3d6000fd5b505050506040513d601f19601f82011682018060405250810190610ce49190611604565b6001600160a01b031614610d12576060610d0b600160601b6001600160a01b038616611553565b901c610d21565b6060836001600160a01b0316901b5b60095460405163f637731d60e01b81529194506001600160a01b03169063f637731d90610d529086906004016118c9565b600060405180830381600087803b158015610d6c57600080fd5b505af1158015610d80573d6000803e3d6000fd5b505050507f30440fb2e4ce813a3feb1a945fc1c8190ba344a38f64cb33348155d72ab138b28184604051610db592919061183f565b60405180910390a150506005805461ff00191661010017905550565b600080600960009054906101000a90046001600160a01b03166001600160a01b031663f30583996040518163ffffffff1660e01b815260040160206040518083038186803b158015610e2257600080fd5b505afa158015610e36573d6000803e3d6000fd5b505050506040513d601f19601f82011682018060405250810190610e5a9190611778565b600960009054906101000a90046001600160a01b03166001600160a01b031663461413196040518163ffffffff1660e01b815260040160206040518083038186803b158015610ea857600080fd5b505afa158015610ebc573d6000803e3d6000fd5b505050506040513d601f19601f82011682018060405250810190610ee09190611778565b60405191935091507f47326037c11e061933886c64b59ccfdf8289ab76a5e40ec091add9cc26dd6f9a90610f179084908490611b2b565b60405180910390a19091565b6001600160a01b0381166000908152602081905260409020545b919050565b6009546001600160a01b031681565b6007546001600160a01b031681565b60048054604080516020601f60026000196101006001881615020190951694909404938401819004810282018101909252828152606093909290918301828280156104ae5780601f10610483576101008083540402835291602001916104ae565b600a546040516001600160a01b039091169081903480156108fc02916000818181858888f1505050505050565b60006104cc610ffb611271565b8461056e85604051806060016040528060258152602001611c4d6025913960016000611025611271565b6001600160a01b03908116825260208083019390935260409182016000908120918d168152925290205491906114bc565b60006104cc611063611271565b8484611361565b600554610100900460ff1681565b60095460408051631ad8b03b60e01b8152815160009384936001600160a01b0390911692631ad8b03b9260048083019392829003018186803b1580156110bd57600080fd5b505afa1580156110d1573d6000803e3d6000fd5b505050506040513d601f19601f820116820180604052508101906110f591906116fd565b60405191935091507f4204265e39bc80e8feb4e46882be411db3d2f9251e07eb95928039349def179690610f179084908490611ae4565b60095460408051630d34328160e11b815290516000926001600160a01b031691631a686502916004808301926020929190829003018186803b15801561117157600080fd5b505afa158015611185573d6000803e3d6000fd5b505050506040513d601f19601f820116820180604052508101906111a991906116e3565b90507fd9b2623c1e933b3df2aa953f171fc0704e9ff9abd6c86f61d6696acfcc3685b5816040516111da9190611ad0565b60405180910390a190565b6001600160a01b03918216600090815260016020908152604080832093909416825291909152205490565b60008282018381101561126a576040805162461bcd60e51b815260206004820152601b60248201527f536166654d6174683a206164646974696f6e206f766572666c6f770000000000604482015290519081900360640190fd5b9392505050565b3390565b6001600160a01b0383166112ba5760405162461bcd60e51b8152600401808060200182810382526024815260200180611c296024913960400191505060405180910390fd5b6001600160a01b0382166112ff5760405162461bcd60e51b8152600401808060200182810382526022815260200180611b946022913960400191505060405180910390fd5b6001600160a01b03808416600081815260016020908152604080832094871680845294825291829020859055815185815291517f8c5be1e5ebec7d5bd14f71427d1e84f3dd0314c0f7b2291e5b200ac8c7c3b9259281900390910190a3505050565b6001600160a01b0383166113a65760405162461bcd60e51b8152600401808060200182810382526025815260200180611c046025913960400191505060405180910390fd5b6001600160a01b0382166113eb5760405162461bcd60e51b8152600401808060200182810382526023815260200180611b716023913960400191505060405180910390fd5b6113f68383836115ba565b61143381604051806060016040528060268152602001611bb6602691396001600160a01b03861660009081526020819052604090205491906114bc565b6001600160a01b0380851660009081526020819052604080822093909355908416815220546114629082611210565b6001600160a01b038084166000818152602081815260409182902094909455805185815290519193928716927fddf252ad1be2c89b69c2b068fc378daa952ba7f163c4a11628f55a4df523b3ef92918290030190a3505050565b6000818484111561154b5760405162461bcd60e51b81526004018080602001828103825283818151815260200191508051906020019080838360005b838110156115105781810151838201526020016114f8565b50505050905090810190601f16801561153d5780820380516001836020036101000a031916815260200191505b509250505060405180910390fd5b505050900390565b60008082116115a9576040805162461bcd60e51b815260206004820152601a60248201527f536166654d6174683a206469766973696f6e206279207a65726f000000000000604482015290519081900360640190fd5b8183816115b257fe5b049392505050565b505050565b8035600281900b8114610f3d57600080fd5b80516001600160801b0381168114610f3d57600080fd5b6000602082840312156115f9578081fd5b813561126a81611b47565b600060208284031215611615578081fd5b815161126a81611b47565b60008060408385031215611632578081fd5b823561163d81611b47565b9150602083013561164d81611b47565b809150509250929050565b60008060006060848603121561166c578081fd5b833561167781611b47565b9250602084013561168781611b47565b929592945050506040919091013590565b600080604083850312156116aa578182fd5b82356116b581611b47565b946020939093013593505050565b6000602082840312156116d4578081fd5b8151801515811461126a578182fd5b6000602082840312156116f4578081fd5b61126a826115d1565b6000806040838503121561170f578182fd5b611718836115d1565b9150611726602084016115d1565b90509250929050565b60008060408385031215611741578182fd5b823561174c81611b47565b9150602083013561164d81611b5f565b60006020828403121561176d578081fd5b815161126a81611b5f565b600060208284031215611789578081fd5b5051919050565b600080600080608085870312156117a5578081fd5b845193506117b5602086016115d1565b6040860151606090960151949790965092505050565b60008060008060008060c087890312156117e3578182fd5b86359550602087013594506040870135935060608701359250611808608088016115bf565b915061181660a088016115bf565b90509295509295509295565b6001600160a01b03169052565b60020b9052565b62ffffff169052565b6001600160a01b0392831681529116602082015260400190565b6001600160a01b03938416815291909216602082015262ffffff909116604082015260600190565b6001600160a01b039384168152919092166020820152604081019190915260600190565b6001600160a01b03929092168252602082015260400190565b901515815260200190565b6001600160a01b0391909116815260200190565b6000602080835283518082850152825b81811015611909578581018301518582016040015282016118ed565b8181111561191a5783604083870101525b50601f01601f1916929092016040019392505050565b6020808252601690820152756d6178203e206d696e206d757374206265207472756560501b604082015260600190565b6020808252602f908201527f506c6561736520616c6c6f772074686520636f6e747261637420746f2077697460408201526e0d0c8e4c2ee40dadee4ca40ae8aa89608b1b606082015260800190565b6020808252600990820152686f6e6c79206f6e636560b81b604082015260600190565b60208082526030908201527f74686973206163636f756e74206e65656473206d6f7265206e65656473206d6f60408201526f7265206f662074686520746f6b656e7360801b606082015260800190565b600061016082019050611a36828451611822565b6020830151611a486020840182611822565b506040830151611a5b6040840182611836565b506060830151611a6e606084018261182f565b506080830151611a81608084018261182f565b5060a083015160a083015260c083015160c083015260e083015160e083015261010080840151818401525061012080840151611abf82850182611822565b505061014092830151919092015290565b6001600160801b0391909116815260200190565b6001600160801b0392831681529116602082015260400190565b90815260200190565b9384526001600160801b039290921660208401526040830152606082015260800190565b918252602082015260400190565b60ff91909116815260200190565b6001600160a01b0381168114611b5c57600080fd5b50565b62ffffff81168114611b5c57600080fdfe45524332303a207472616e7366657220746f20746865207a65726f206164647265737345524332303a20617070726f766520746f20746865207a65726f206164647265737345524332303a207472616e7366657220616d6f756e7420657863656564732062616c616e636545524332303a207472616e7366657220616d6f756e74206578636565647320616c6c6f77616e636545524332303a207472616e736665722066726f6d20746865207a65726f206164647265737345524332303a20617070726f76652066726f6d20746865207a65726f206164647265737345524332303a2064656372656173656420616c6c6f77616e63652062656c6f77207a65726fa26469706673582212206615853b0b3565c41abadc53160fc1fee4eee8b9928056e27dc759491d6bcb4164736f6c63430007060033","abi":[{"inputs":[{"internalType":"uint256","name":"contractBalance_","type":"uint256"},{"internalType":"uint256","name":"ownerBalance_","type":"uint256"}],"stateMutability":"nonpayable","type":"constructor"},{"anonymous":false,"inputs":[{"indexed":true,"internalType":"address","name":"owner","type":"address"},{"indexed":true,"internalType":"address","name":"spender","type":"address"},{"indexed":false,"internalType":"uint256","name":"value","type":"uint256"}],"name":"Approval","type":"event"},{"anonymous":false,"inputs":[{"indexed":false,"internalType":"uint256","name":"","type":"uint256"}],"name":"BalanceCheck","type":"event"},{"anonymous":false,"inputs":[{"indexed":false,"internalType":"uint128","name":"","type":"uint128"},{"indexed":false,"internalType":"uint128","name":"","type":"uint128"}],"name":"Fees","type":"event"},{"anonymous":false,"inputs":[{"indexed":false,"internalType":"uint256","name":"","type":"uint256"},{"indexed":false,"internalType":"uint256","name":"","type":"uint256"}],"name":"FeesGlobal","type":"event"},{"anonymous":false,"inputs":[{"indexed":false,"internalType":"uint128","name":"","type":"uint128"}],"name":"Liquidity","type":"event"},{"anonymous":false,"inputs":[{"indexed":false,"internalType":"uint256","name":"tokenId","type":"uint256"},{"indexed":false,"internalType":"uint128","name":"liquidity","type":"uint128"},{"indexed":false,"internalType":"uint256","name":"amountToken0Used","type":"uint256"},{"indexed":false,"internalType":"uint256","name":"amountToken1Used","type":"uint256"}],"name":"NonfungibleLiquidityPositionMinted","type":"event"},{"anonymous":false,"inputs":[{"indexed":false,"internalType":"address","name":"PoolAddress","type":"address"},{"indexed":false,"internalType":"uint160","name":"sqrtPriceX96","type":"uint160"}],"name":"PoolInitialized","type":"event"},{"anonymous":false,"inputs":[{"indexed":true,"internalType":"address","name":"from","type":"address"},{"indexed":true,"internalType":"address","name":"to","type":"address"},{"indexed":false,"internalType":"uint256","name":"value","type":"uint256"}],"name":"Transfer","type":"event"},{"inputs":[],"name":"MAX_INT","outputs":[{"internalType":"uint256","name":"","type":"uint256"}],"stateMutability":"view","type":"function"},{"inputs":[],"name":"addWETH","outputs":[],"stateMutability":"payable","type":"function"},{"inputs":[{"internalType":"address","name":"owner","type":"address"},{"internalType":"address","name":"spender","type":"address"}],"name":"allowance","outputs":[{"internalType":"uint256","name":"","type":"uint256"}],"stateMutability":"view","type":"function"},{"inputs":[{"internalType":"address","name":"spender","type":"address"},{"internalType":"uint256","name":"amount","type":"uint256"}],"name":"approve","outputs":[{"internalType":"bool","name":"","type":"bool"}],"stateMutability":"nonpayable","type":"function"},{"inputs":[{"internalType":"address","name":"account","type":"address"}],"name":"balanceOf","outputs":[{"internalType":"uint256","name":"","type":"uint256"}],"stateMutability":"view","type":"function"},{"inputs":[],"name":"decimals","outputs":[{"internalType":"uint8","name":"","type":"uint8"}],"stateMutability":"view","type":"function"},{"inputs":[{"internalType":"address","name":"spender","type":"address"},{"internalType":"uint256","name":"subtractedValue","type":"uint256"}],"name":"decreaseAllowance","outputs":[{"internalType":"bool","name":"","type":"bool"}],"stateMutability":"nonpayable","type":"function"},{"inputs":[],"name":"deployedPool","outputs":[{"internalType":"contract IUniswapV3Pool","name":"","type":"address"}],"stateMutability":"view","type":"function"},{"inputs":[{"internalType":"address","name":"spender","type":"address"},{"internalType":"uint256","name":"addedValue","type":"uint256"}],"name":"increaseAllowance","outputs":[{"internalType":"bool","name":"","type":"bool"}],"stateMutability":"nonpayable","type":"function"},{"inputs":[{"internalType":"uint256","name":"amountWETH_","type":"uint256"},{"internalType":"uint256","name":"amountThis_","type":"uint256"},{"internalType":"uint256","name":"amountWETH_min","type":"uint256"},{"internalType":"uint256","name":"amountThis_min","type":"uint256"},{"internalType":"int24","name":"tick0_","type":"int24"},{"internalType":"int24","name":"tick1_","type":"int24"}],"name":"mintNonfungibleLiquidityPosition","outputs":[],"stateMutability":"nonpayable","type":"function"},{"inputs":[],"name":"name","outputs":[{"internalType":"string","name":"","type":"string"}],"stateMutability":"view","type":"function"},{"inputs":[],"name":"poolDeployed","outputs":[{"internalType":"bool","name":"","type":"bool"}],"stateMutability":"view","type":"function"},{"inputs":[],"name":"returnFeesGlobal","outputs":[{"internalType":"uint256","name":"fg1","type":"uint256"},{"internalType":"uint256","name":"fg2","type":"uint256"}],"stateMutability":"nonpayable","type":"function"},{"inputs":[],"name":"returnFeesOfPool","outputs":[{"internalType":"uint128","name":"token0","type":"uint128"},{"internalType":"uint128","name":"token1","type":"uint128"}],"stateMutability":"nonpayable","type":"function"},{"inputs":[],"name":"returnLiquidityOfPool","outputs":[{"internalType":"uint128","name":"liq","type":"uint128"}],"stateMutability":"nonpayable","type":"function"},{"inputs":[{"internalType":"uint160","name":"price_","type":"uint160"},{"internalType":"uint24","name":"fee","type":"uint24"}],"name":"selfDeployPool","outputs":[],"stateMutability":"nonpayable","type":"function"},{"inputs":[],"name":"symbol","outputs":[{"internalType":"string","name":"","type":"string"}],"stateMutability":"view","type":"function"},{"inputs":[],"name":"tokenId","outputs":[{"internalType":"uint256","name":"","type":"uint256"}],"stateMutability":"view","type":"function"},{"inputs":[],"name":"totalSupply","outputs":[{"internalType":"uint256","name":"","type":"uint256"}],"stateMutability":"view","type":"function"},{"inputs":[{"internalType":"address","name":"recipient","type":"address"},{"internalType":"uint256","name":"amount","type":"uint256"}],"name":"transfer","outputs":[{"internalType":"bool","name":"","type":"bool"}],"stateMutability":"nonpayable","type":"function"},{"inputs":[{"internalType":"address","name":"sender","type":"address"},{"internalType":"address","name":"recipient","type":"address"},{"internalType":"uint256","name":"amount","type":"uint256"}],"name":"transferFrom","outputs":[{"internalType":"bool","name":"","type":"bool"}],"stateMutability":"nonpayable","type":"function"},{"inputs":[],"name":"v3Factory","outputs":[{"internalType":"contract IUniswapV3Factory","name":"","type":"address"}],"stateMutability":"view","type":"function"},{"inputs":[],"name":"v3NPM","outputs":[{"internalType":"contract INonfungiblePositionManager","name":"","type":"address"}],"stateMutability":"view","type":"function"},{"inputs":[],"name":"weth9c","outputs":[{"internalType":"contract IWETH9","name":"","type":"address"}],"stateMutability":"view","type":"function"}]}